{
  "contractName": "SAWONdex",
  "abi": [
    {
      "inputs": [
        {
          "internalType": "address",
          "name": "feeAccount_",
          "type": "address"
        },
        {
          "internalType": "uint256",
          "name": "feePercent_",
          "type": "uint256"
        }
      ],
      "stateMutability": "nonpayable",
      "type": "constructor"
    },
    {
      "anonymous": false,
      "inputs": [
        {
          "indexed": false,
          "internalType": "address",
          "name": "token",
          "type": "address"
        },
        {
          "indexed": false,
          "internalType": "address",
          "name": "user",
          "type": "address"
        },
        {
          "indexed": false,
          "internalType": "uint256",
          "name": "amount",
          "type": "uint256"
        },
        {
          "indexed": false,
          "internalType": "uint256",
          "name": "balance",
          "type": "uint256"
        }
      ],
      "name": "Deposit",
      "type": "event"
    },
    {
      "anonymous": false,
      "inputs": [
        {
          "indexed": false,
          "internalType": "uint256",
          "name": "id",
          "type": "uint256"
        },
        {
          "indexed": false,
          "internalType": "address",
          "name": "user",
          "type": "address"
        },
        {
          "indexed": false,
          "internalType": "address",
          "name": "tokenGet",
          "type": "address"
        },
        {
          "indexed": false,
          "internalType": "uint256",
          "name": "amountGet",
          "type": "uint256"
        },
        {
          "indexed": false,
          "internalType": "address",
          "name": "tokenGive",
          "type": "address"
        },
        {
          "indexed": false,
          "internalType": "uint256",
          "name": "amountGive",
          "type": "uint256"
        },
        {
          "indexed": false,
          "internalType": "uint256",
          "name": "timestamp",
          "type": "uint256"
        }
      ],
      "name": "OrderCancelled",
      "type": "event"
    },
    {
      "anonymous": false,
      "inputs": [
        {
          "indexed": false,
          "internalType": "uint256",
          "name": "id",
          "type": "uint256"
        },
        {
          "indexed": false,
          "internalType": "address",
          "name": "user",
          "type": "address"
        },
        {
          "indexed": false,
          "internalType": "address",
          "name": "tokenGet",
          "type": "address"
        },
        {
          "indexed": false,
          "internalType": "uint256",
          "name": "amountGet",
          "type": "uint256"
        },
        {
          "indexed": false,
          "internalType": "address",
          "name": "tokenGive",
          "type": "address"
        },
        {
          "indexed": false,
          "internalType": "uint256",
          "name": "amountGive",
          "type": "uint256"
        },
        {
          "indexed": false,
          "internalType": "uint256",
          "name": "timestamp",
          "type": "uint256"
        }
      ],
      "name": "OrderCreated",
      "type": "event"
    },
    {
      "anonymous": false,
      "inputs": [
        {
          "indexed": false,
          "internalType": "uint256",
          "name": "id",
          "type": "uint256"
        },
        {
          "indexed": false,
          "internalType": "address",
          "name": "user",
          "type": "address"
        },
        {
          "indexed": false,
          "internalType": "address",
          "name": "tokenGet",
          "type": "address"
        },
        {
          "indexed": false,
          "internalType": "uint256",
          "name": "amountGet",
          "type": "uint256"
        },
        {
          "indexed": false,
          "internalType": "address",
          "name": "tokenGive",
          "type": "address"
        },
        {
          "indexed": false,
          "internalType": "uint256",
          "name": "amountGive",
          "type": "uint256"
        },
        {
          "indexed": false,
          "internalType": "address",
          "name": "userFill",
          "type": "address"
        },
        {
          "indexed": false,
          "internalType": "uint256",
          "name": "timestamp",
          "type": "uint256"
        }
      ],
      "name": "OrderFilled",
      "type": "event"
    },
    {
      "anonymous": false,
      "inputs": [
        {
          "indexed": false,
          "internalType": "address",
          "name": "token",
          "type": "address"
        },
        {
          "indexed": false,
          "internalType": "address",
          "name": "user",
          "type": "address"
        },
        {
          "indexed": false,
          "internalType": "uint256",
          "name": "amount",
          "type": "uint256"
        },
        {
          "indexed": false,
          "internalType": "uint256",
          "name": "balance",
          "type": "uint256"
        }
      ],
      "name": "Withdraw",
      "type": "event"
    },
    {
      "stateMutability": "payable",
      "type": "fallback",
      "payable": true
    },
    {
      "inputs": [],
      "name": "ETHER",
      "outputs": [
        {
          "internalType": "address",
          "name": "",
          "type": "address"
        }
      ],
      "stateMutability": "view",
      "type": "function",
      "constant": true
    },
    {
      "stateMutability": "payable",
      "type": "receive",
      "payable": true
    },
    {
      "inputs": [],
      "name": "depositEther",
      "outputs": [],
      "stateMutability": "payable",
      "type": "function",
      "payable": true
    },
    {
      "inputs": [
        {
          "internalType": "uint256",
          "name": "amount_",
          "type": "uint256"
        }
      ],
      "name": "withdrawEther",
      "outputs": [],
      "stateMutability": "nonpayable",
      "type": "function"
    },
    {
      "inputs": [
        {
          "internalType": "address",
          "name": "token_",
          "type": "address"
        },
        {
          "internalType": "uint256",
          "name": "amount_",
          "type": "uint256"
        }
      ],
      "name": "depositToken",
      "outputs": [],
      "stateMutability": "nonpayable",
      "type": "function"
    },
    {
      "inputs": [
        {
          "internalType": "address",
          "name": "token_",
          "type": "address"
        },
        {
          "internalType": "uint256",
          "name": "amount_",
          "type": "uint256"
        }
      ],
      "name": "withdrawToken",
      "outputs": [],
      "stateMutability": "nonpayable",
      "type": "function"
    },
    {
      "inputs": [
        {
          "internalType": "address",
          "name": "token_",
          "type": "address"
        },
        {
          "internalType": "address",
          "name": "user_",
          "type": "address"
        }
      ],
      "name": "balanceOf",
      "outputs": [
        {
          "internalType": "uint256",
          "name": "",
          "type": "uint256"
        }
      ],
      "stateMutability": "view",
      "type": "function",
      "constant": true
    },
    {
      "inputs": [
        {
          "internalType": "address",
          "name": "tokenGet_",
          "type": "address"
        },
        {
          "internalType": "uint256",
          "name": "amountGet_",
          "type": "uint256"
        },
        {
          "internalType": "address",
          "name": "tokenGive_",
          "type": "address"
        },
        {
          "internalType": "uint256",
          "name": "amountGive_",
          "type": "uint256"
        }
      ],
      "name": "makeOrder",
      "outputs": [],
      "stateMutability": "nonpayable",
      "type": "function"
    },
    {
      "inputs": [
        {
          "internalType": "uint256",
          "name": "id_",
          "type": "uint256"
        }
      ],
      "name": "cancelOrder",
      "outputs": [],
      "stateMutability": "nonpayable",
      "type": "function"
    },
    {
      "inputs": [
        {
          "internalType": "uint256",
          "name": "id_",
          "type": "uint256"
        }
      ],
      "name": "fillOrder",
      "outputs": [],
      "stateMutability": "nonpayable",
      "type": "function"
    },
    {
      "inputs": [
        {
          "internalType": "uint256",
          "name": "orderId_",
          "type": "uint256"
        }
      ],
      "name": "getOrder",
      "outputs": [
        {
          "components": [
            {
              "internalType": "uint256",
              "name": "id",
              "type": "uint256"
            },
            {
              "internalType": "address",
              "name": "user",
              "type": "address"
            },
            {
              "internalType": "address",
              "name": "tokenGet",
              "type": "address"
            },
            {
              "internalType": "uint256",
              "name": "amountGet",
              "type": "uint256"
            },
            {
              "internalType": "address",
              "name": "tokenGive",
              "type": "address"
            },
            {
              "internalType": "uint256",
              "name": "amountGive",
              "type": "uint256"
            },
            {
              "internalType": "uint256",
              "name": "timestamp",
              "type": "uint256"
            }
          ],
          "internalType": "struct SAWONdex.Order",
          "name": "",
          "type": "tuple"
        }
      ],
      "stateMutability": "view",
      "type": "function",
      "constant": true
    },
    {
      "inputs": [
        {
          "internalType": "uint256",
          "name": "orderId_",
          "type": "uint256"
        }
      ],
      "name": "getOrderFilled",
      "outputs": [
        {
          "internalType": "bool",
          "name": "",
          "type": "bool"
        }
      ],
      "stateMutability": "view",
      "type": "function",
      "constant": true
    },
    {
      "inputs": [
        {
          "internalType": "uint256",
          "name": "orderId_",
          "type": "uint256"
        }
      ],
      "name": "getOrderCancelled",
      "outputs": [
        {
          "internalType": "bool",
          "name": "",
          "type": "bool"
        }
      ],
      "stateMutability": "view",
      "type": "function",
      "constant": true
    },
    {
      "inputs": [],
      "name": "getOrderCount",
      "outputs": [
        {
          "internalType": "uint256",
          "name": "",
          "type": "uint256"
        }
      ],
      "stateMutability": "view",
      "type": "function",
      "constant": true
    },
    {
      "inputs": [],
      "name": "getFeeAccount",
      "outputs": [
        {
          "internalType": "address",
          "name": "",
          "type": "address"
        }
      ],
      "stateMutability": "view",
      "type": "function",
      "constant": true
    },
    {
      "inputs": [],
      "name": "getFeePercent",
      "outputs": [
        {
          "internalType": "uint256",
          "name": "",
          "type": "uint256"
        }
      ],
      "stateMutability": "view",
      "type": "function",
      "constant": true
    }
  ],
  "bytecode": "0x60806040523480156200001157600080fd5b5060405162002b4838038062002b488339818101604052810190620000379190620001e3565b600073ffffffffffffffffffffffffffffffffffffffff168273ffffffffffffffffffffffffffffffffffffffff1603620000a9576040517f08c379a0000000000000000000000000000000000000000000000000000000008152600401620000a090620002b1565b60405180910390fd5b60008103620000ef576040517f08c379a0000000000000000000000000000000000000000000000000000000008152600401620000e69062000323565b60405180910390fd5b816000806101000a81548173ffffffffffffffffffffffffffffffffffffffff021916908373ffffffffffffffffffffffffffffffffffffffff16021790555080600181905550505062000345565b600080fd5b600073ffffffffffffffffffffffffffffffffffffffff82169050919050565b6000620001708262000143565b9050919050565b620001828162000163565b81146200018e57600080fd5b50565b600081519050620001a28162000177565b92915050565b6000819050919050565b620001bd81620001a8565b8114620001c957600080fd5b50565b600081519050620001dd81620001b2565b92915050565b60008060408385031215620001fd57620001fc6200013e565b5b60006200020d8582860162000191565b92505060206200022085828601620001cc565b9150509250929050565b600082825260208201905092915050565b7f466565206163636f756e742063616e6e6f742062652061646472657373207a6560008201527f726f000000000000000000000000000000000000000000000000000000000000602082015250565b6000620002996022836200022a565b9150620002a6826200023b565b604082019050919050565b60006020820190508181036000830152620002cc816200028a565b9050919050565b7f4665652070657263656e742063616e6f74206265207a65726f00000000000000600082015250565b60006200030b6019836200022a565b91506200031882620002d3565b602082019050919050565b600060208201905081810360008301526200033e81620002fc565b9050919050565b6127f380620003556000396000f3fe6080604052600436106100ec5760003560e01c80638d0a5fbb1161008a578063b35b792111610059578063b35b7921146102c3578063be74264d14610300578063d09ef2411461032b578063f7888aec14610368576100fb565b80638d0a5fbb1461023c57806398ea5fca146102675780639a5c90aa146102715780639e281a981461029a576100fb565b806342cb1fbc116100c657806342cb1fbc146101945780634614be9f146101bf578063514fcac7146101ea57806367b830ad14610213576100fb565b8063338b5dea1461010557806334900d111461012e5780633bed33ce1461016b576100fb565b366100fb576100f96103a5565b005b6101036103a5565b005b34801561011157600080fd5b5061012c60048036038101906101279190611e51565b6105ac565b005b34801561013a57600080fd5b5061015560048036038101906101509190611e91565b610861565b6040516101629190611ed9565b60405180910390f35b34801561017757600080fd5b50610192600480360381019061018d9190611e91565b61088b565b005b3480156101a057600080fd5b506101a9610b63565b6040516101b69190611f03565b60405180910390f35b3480156101cb57600080fd5b506101d4610b68565b6040516101e19190611f03565b60405180910390f35b3480156101f657600080fd5b50610211600480360381019061020c9190611e91565b610b91565b005b34801561021f57600080fd5b5061023a60048036038101906102359190611e91565b610cdb565b005b34801561024857600080fd5b50610251610ebf565b60405161025e9190611f2d565b60405180910390f35b61026f6103a5565b005b34801561027d57600080fd5b5061029860048036038101906102939190611f48565b610ec9565b005b3480156102a657600080fd5b506102c160048036038101906102bc9190611e51565b611140565b005b3480156102cf57600080fd5b506102ea60048036038101906102e59190611e91565b61147c565b6040516102f79190611ed9565b60405180910390f35b34801561030c57600080fd5b506103156114a6565b6040516103229190611f2d565b60405180910390f35b34801561033757600080fd5b50610352600480360381019061034d9190611e91565b6114b0565b60405161035f919061205b565b60405180910390f35b34801561037457600080fd5b5061038f600480360381019061038a9190612076565b611607565b60405161039c9190611f2d565b60405180910390f35b600034036103e8576040517f08c379a00000000000000000000000000000000000000000000000000000000081526004016103df90612113565b60405180910390fd5b34600360008073ffffffffffffffffffffffffffffffffffffffff1673ffffffffffffffffffffffffffffffffffffffff16815260200190815260200160002060003373ffffffffffffffffffffffffffffffffffffffff1673ffffffffffffffffffffffffffffffffffffffff168152602001908152602001600020546104709190612162565b600360008073ffffffffffffffffffffffffffffffffffffffff1673ffffffffffffffffffffffffffffffffffffffff16815260200190815260200160002060003373ffffffffffffffffffffffffffffffffffffffff1673ffffffffffffffffffffffffffffffffffffffff168152602001908152602001600020819055507fdcbc1c05240f31ff3ad067ef1ee35ce4997762752e3a095284754544f4c709d760003334600360008073ffffffffffffffffffffffffffffffffffffffff1673ffffffffffffffffffffffffffffffffffffffff16815260200190815260200160002060003373ffffffffffffffffffffffffffffffffffffffff1673ffffffffffffffffffffffffffffffffffffffff168152602001908152602001600020546040516105a29493929190612196565b60405180910390a1565b600073ffffffffffffffffffffffffffffffffffffffff168273ffffffffffffffffffffffffffffffffffffffff160361061b576040517f08c379a000000000000000000000000000000000000000000000000000000000815260040161061290612227565b60405180910390fd5b8173ffffffffffffffffffffffffffffffffffffffff166323b872dd3330846040518463ffffffff1660e01b815260040161065893929190612247565b6020604051808303816000875af1158015610677573d6000803e3d6000fd5b505050506040513d601f19601f8201168201806040525081019061069b91906122aa565b5080600360008473ffffffffffffffffffffffffffffffffffffffff1673ffffffffffffffffffffffffffffffffffffffff16815260200190815260200160002060003373ffffffffffffffffffffffffffffffffffffffff1673ffffffffffffffffffffffffffffffffffffffff168152602001908152602001600020546107249190612162565b600360008473ffffffffffffffffffffffffffffffffffffffff1673ffffffffffffffffffffffffffffffffffffffff16815260200190815260200160002060003373ffffffffffffffffffffffffffffffffffffffff1673ffffffffffffffffffffffffffffffffffffffff168152602001908152602001600020819055507fdcbc1c05240f31ff3ad067ef1ee35ce4997762752e3a095284754544f4c709d7823383600360008773ffffffffffffffffffffffffffffffffffffffff1673ffffffffffffffffffffffffffffffffffffffff16815260200190815260200160002060003373ffffffffffffffffffffffffffffffffffffffff1673ffffffffffffffffffffffffffffffffffffffff168152602001908152602001600020546040516108559493929190612196565b60405180910390a15050565b60006005600083815260200190815260200160002060009054906101000a900460ff169050919050565b600081036108ce576040517f08c379a00000000000000000000000000000000000000000000000000000000081526004016108c590612113565b60405180910390fd5b80600360008073ffffffffffffffffffffffffffffffffffffffff1673ffffffffffffffffffffffffffffffffffffffff16815260200190815260200160002060003373ffffffffffffffffffffffffffffffffffffffff1673ffffffffffffffffffffffffffffffffffffffff16815260200190815260200160002054101561095757600080fd5b80600360008073ffffffffffffffffffffffffffffffffffffffff1673ffffffffffffffffffffffffffffffffffffffff16815260200190815260200160002060003373ffffffffffffffffffffffffffffffffffffffff1673ffffffffffffffffffffffffffffffffffffffff168152602001908152602001600020546109df91906122d7565b600360008073ffffffffffffffffffffffffffffffffffffffff1673ffffffffffffffffffffffffffffffffffffffff16815260200190815260200160002060003373ffffffffffffffffffffffffffffffffffffffff1673ffffffffffffffffffffffffffffffffffffffff168152602001908152602001600020819055503373ffffffffffffffffffffffffffffffffffffffff166108fc829081150290604051600060405180830381858888f19350505050158015610aa5573d6000803e3d6000fd5b507ff341246adaac6f497bc2a656f546ab9e182111d630394f0c57c710a59a2cb56760003383600360008073ffffffffffffffffffffffffffffffffffffffff1673ffffffffffffffffffffffffffffffffffffffff16815260200190815260200160002060003373ffffffffffffffffffffffffffffffffffffffff1673ffffffffffffffffffffffffffffffffffffffff16815260200190815260200160002054604051610b589493929190612196565b60405180910390a150565b600081565b60008060009054906101000a900473ffffffffffffffffffffffffffffffffffffffff16905090565b60006004600083815260200190815260200160002090503373ffffffffffffffffffffffffffffffffffffffff168160010160009054906101000a900473ffffffffffffffffffffffffffffffffffffffff1673ffffffffffffffffffffffffffffffffffffffff1614610c0457600080fd5b81816000015414610c1457600080fd5b60016005600084815260200190815260200160002060006101000a81548160ff0219169083151502179055507f0fc466a139855d3b21f9eb9dfdadd9dfdaf9b58bd400756b26083b7077055e278160000154338360020160009054906101000a900473ffffffffffffffffffffffffffffffffffffffff1684600301548560040160009054906101000a900473ffffffffffffffffffffffffffffffffffffffff16866005015442604051610ccf979695949392919061230b565b60405180910390a15050565b600081118015610ced57506002548111155b610d2c576040517f08c379a0000000000000000000000000000000000000000000000000000000008152600401610d23906123c6565b60405180910390fd5b6006600082815260200190815260200160002060009054906101000a900460ff1615610d8d576040517f08c379a0000000000000000000000000000000000000000000000000000000008152600401610d8490612458565b60405180910390fd5b6005600082815260200190815260200160002060009054906101000a900460ff1615610dee576040517f08c379a0000000000000000000000000000000000000000000000000000000008152600401610de5906124ea565b60405180910390fd5b6000600460008381526020019081526020016000209050610e8b81600001548260010160009054906101000a900473ffffffffffffffffffffffffffffffffffffffff168360020160009054906101000a900473ffffffffffffffffffffffffffffffffffffffff1684600301548560040160009054906101000a900473ffffffffffffffffffffffffffffffffffffffff16866005015461168e565b6001600660008360000154815260200190815260200160002060006101000a81548160ff0219169083151502179055505050565b6000600254905090565b60008303610f0c576040517f08c379a0000000000000000000000000000000000000000000000000000000008152600401610f0390612556565b60405180910390fd5b60008103610f4f576040517f08c379a0000000000000000000000000000000000000000000000000000000008152600401610f46906125c2565b60405180910390fd5b600160026000828254610f629190612162565b925050819055506040518060e0016040528060025481526020013373ffffffffffffffffffffffffffffffffffffffff1681526020018573ffffffffffffffffffffffffffffffffffffffff1681526020018481526020018373ffffffffffffffffffffffffffffffffffffffff168152602001828152602001428152506004600060025481526020019081526020016000206000820151816000015560208201518160010160006101000a81548173ffffffffffffffffffffffffffffffffffffffff021916908373ffffffffffffffffffffffffffffffffffffffff16021790555060408201518160020160006101000a81548173ffffffffffffffffffffffffffffffffffffffff021916908373ffffffffffffffffffffffffffffffffffffffff1602179055506060820151816003015560808201518160040160006101000a81548173ffffffffffffffffffffffffffffffffffffffff021916908373ffffffffffffffffffffffffffffffffffffffff16021790555060a0820151816005015560c082015181600601559050507ff4e94e11847dd5a076a1f8bc24ec98dfa58292de438d62656742b833fe022ec0600254338686868642604051611132979695949392919061230b565b60405180910390a150505050565b600073ffffffffffffffffffffffffffffffffffffffff168273ffffffffffffffffffffffffffffffffffffffff16036111af576040517f08c379a00000000000000000000000000000000000000000000000000000000081526004016111a690612227565b60405180910390fd5b80600360008473ffffffffffffffffffffffffffffffffffffffff1673ffffffffffffffffffffffffffffffffffffffff16815260200190815260200160002060003373ffffffffffffffffffffffffffffffffffffffff1673ffffffffffffffffffffffffffffffffffffffff16815260200190815260200160002054101561123857600080fd5b80600360008473ffffffffffffffffffffffffffffffffffffffff1673ffffffffffffffffffffffffffffffffffffffff16815260200190815260200160002060003373ffffffffffffffffffffffffffffffffffffffff1673ffffffffffffffffffffffffffffffffffffffff168152602001908152602001600020546112c091906122d7565b600360008473ffffffffffffffffffffffffffffffffffffffff1673ffffffffffffffffffffffffffffffffffffffff16815260200190815260200160002060003373ffffffffffffffffffffffffffffffffffffffff1673ffffffffffffffffffffffffffffffffffffffff168152602001908152602001600020819055508173ffffffffffffffffffffffffffffffffffffffff1663a9059cbb33836040518363ffffffff1660e01b815260040161137b9291906125e2565b6020604051808303816000875af115801561139a573d6000803e3d6000fd5b505050506040513d601f19601f820116820180604052508101906113be91906122aa565b507ff341246adaac6f497bc2a656f546ab9e182111d630394f0c57c710a59a2cb567823383600360008773ffffffffffffffffffffffffffffffffffffffff1673ffffffffffffffffffffffffffffffffffffffff16815260200190815260200160002060003373ffffffffffffffffffffffffffffffffffffffff1673ffffffffffffffffffffffffffffffffffffffff168152602001908152602001600020546040516114709493929190612196565b60405180910390a15050565b60006006600083815260200190815260200160002060009054906101000a900460ff169050919050565b6000600154905090565b6114b8611d39565b600460008381526020019081526020016000206040518060e0016040529081600082015481526020016001820160009054906101000a900473ffffffffffffffffffffffffffffffffffffffff1673ffffffffffffffffffffffffffffffffffffffff1673ffffffffffffffffffffffffffffffffffffffff1681526020016002820160009054906101000a900473ffffffffffffffffffffffffffffffffffffffff1673ffffffffffffffffffffffffffffffffffffffff1673ffffffffffffffffffffffffffffffffffffffff168152602001600382015481526020016004820160009054906101000a900473ffffffffffffffffffffffffffffffffffffffff1673ffffffffffffffffffffffffffffffffffffffff1673ffffffffffffffffffffffffffffffffffffffff168152602001600582015481526020016006820154815250509050919050565b6000600360008473ffffffffffffffffffffffffffffffffffffffff1673ffffffffffffffffffffffffffffffffffffffff16815260200190815260200160002060008373ffffffffffffffffffffffffffffffffffffffff1673ffffffffffffffffffffffffffffffffffffffff16815260200190815260200160002054905092915050565b60006064600154856116a0919061260b565b6116aa919061267c565b905080846116b89190612162565b600360008773ffffffffffffffffffffffffffffffffffffffff1673ffffffffffffffffffffffffffffffffffffffff16815260200190815260200160002060003373ffffffffffffffffffffffffffffffffffffffff1673ffffffffffffffffffffffffffffffffffffffff168152602001908152602001600020541015611776576040517f08c379a000000000000000000000000000000000000000000000000000000000815260040161176d9061271f565b60405180910390fd5b80846117829190612162565b600360008773ffffffffffffffffffffffffffffffffffffffff1673ffffffffffffffffffffffffffffffffffffffff16815260200190815260200160002060003373ffffffffffffffffffffffffffffffffffffffff1673ffffffffffffffffffffffffffffffffffffffff1681526020019081526020016000205461180991906122d7565b600360008773ffffffffffffffffffffffffffffffffffffffff1673ffffffffffffffffffffffffffffffffffffffff16815260200190815260200160002060003373ffffffffffffffffffffffffffffffffffffffff1673ffffffffffffffffffffffffffffffffffffffff1681526020019081526020016000208190555083600360008773ffffffffffffffffffffffffffffffffffffffff1673ffffffffffffffffffffffffffffffffffffffff16815260200190815260200160002060008873ffffffffffffffffffffffffffffffffffffffff1673ffffffffffffffffffffffffffffffffffffffff168152602001908152602001600020546119119190612162565b600360008773ffffffffffffffffffffffffffffffffffffffff1673ffffffffffffffffffffffffffffffffffffffff16815260200190815260200160002060008873ffffffffffffffffffffffffffffffffffffffff1673ffffffffffffffffffffffffffffffffffffffff1681526020019081526020016000208190555080600360008773ffffffffffffffffffffffffffffffffffffffff1673ffffffffffffffffffffffffffffffffffffffff16815260200190815260200160002060008060009054906101000a900473ffffffffffffffffffffffffffffffffffffffff1673ffffffffffffffffffffffffffffffffffffffff1673ffffffffffffffffffffffffffffffffffffffff16815260200190815260200160002054611a3a9190612162565b600360008773ffffffffffffffffffffffffffffffffffffffff1673ffffffffffffffffffffffffffffffffffffffff16815260200190815260200160002060008060009054906101000a900473ffffffffffffffffffffffffffffffffffffffff1673ffffffffffffffffffffffffffffffffffffffff1673ffffffffffffffffffffffffffffffffffffffff1681526020019081526020016000208190555081600360008573ffffffffffffffffffffffffffffffffffffffff1673ffffffffffffffffffffffffffffffffffffffff16815260200190815260200160002060008873ffffffffffffffffffffffffffffffffffffffff1673ffffffffffffffffffffffffffffffffffffffff16815260200190815260200160002054611b6391906122d7565b600360008573ffffffffffffffffffffffffffffffffffffffff1673ffffffffffffffffffffffffffffffffffffffff16815260200190815260200160002060008873ffffffffffffffffffffffffffffffffffffffff1673ffffffffffffffffffffffffffffffffffffffff1681526020019081526020016000208190555081600360008573ffffffffffffffffffffffffffffffffffffffff1673ffffffffffffffffffffffffffffffffffffffff16815260200190815260200160002060003373ffffffffffffffffffffffffffffffffffffffff1673ffffffffffffffffffffffffffffffffffffffff16815260200190815260200160002054611c6b9190612162565b600360008573ffffffffffffffffffffffffffffffffffffffff1673ffffffffffffffffffffffffffffffffffffffff16815260200190815260200160002060003373ffffffffffffffffffffffffffffffffffffffff1673ffffffffffffffffffffffffffffffffffffffff168152602001908152602001600020819055507f3f18c6d086d994230a01522d5756546e531baf4669ec8aea8cb68180b184c3848787878787873342604051611d2898979695949392919061273f565b60405180910390a150505050505050565b6040518060e0016040528060008152602001600073ffffffffffffffffffffffffffffffffffffffff168152602001600073ffffffffffffffffffffffffffffffffffffffff16815260200160008152602001600073ffffffffffffffffffffffffffffffffffffffff16815260200160008152602001600081525090565b600080fd5b600073ffffffffffffffffffffffffffffffffffffffff82169050919050565b6000611de882611dbd565b9050919050565b611df881611ddd565b8114611e0357600080fd5b50565b600081359050611e1581611def565b92915050565b6000819050919050565b611e2e81611e1b565b8114611e3957600080fd5b50565b600081359050611e4b81611e25565b92915050565b60008060408385031215611e6857611e67611db8565b5b6000611e7685828601611e06565b9250506020611e8785828601611e3c565b9150509250929050565b600060208284031215611ea757611ea6611db8565b5b6000611eb584828501611e3c565b91505092915050565b60008115159050919050565b611ed381611ebe565b82525050565b6000602082019050611eee6000830184611eca565b92915050565b611efd81611ddd565b82525050565b6000602082019050611f186000830184611ef4565b92915050565b611f2781611e1b565b82525050565b6000602082019050611f426000830184611f1e565b92915050565b60008060008060808587031215611f6257611f61611db8565b5b6000611f7087828801611e06565b9450506020611f8187828801611e3c565b9350506040611f9287828801611e06565b9250506060611fa387828801611e3c565b91505092959194509250565b611fb881611e1b565b82525050565b611fc781611ddd565b82525050565b60e082016000820151611fe36000850182611faf565b506020820151611ff66020850182611fbe565b5060408201516120096040850182611fbe565b50606082015161201c6060850182611faf565b50608082015161202f6080850182611fbe565b5060a082015161204260a0850182611faf565b5060c082015161205560c0850182611faf565b50505050565b600060e0820190506120706000830184611fcd565b92915050565b6000806040838503121561208d5761208c611db8565b5b600061209b85828601611e06565b92505060206120ac85828601611e06565b9150509250929050565b600082825260208201905092915050565b7f56616c75652063616e6e6f74206265207a65726f000000000000000000000000600082015250565b60006120fd6014836120b6565b9150612108826120c7565b602082019050919050565b6000602082019050818103600083015261212c816120f0565b9050919050565b7f4e487b7100000000000000000000000000000000000000000000000000000000600052601160045260246000fd5b600061216d82611e1b565b915061217883611e1b565b92508282019050808211156121905761218f612133565b5b92915050565b60006080820190506121ab6000830187611ef4565b6121b86020830186611ef4565b6121c56040830185611f1e565b6121d26060830184611f1e565b95945050505050565b7f45524332302063616e6e6f742062652061646472657373207a65726f00000000600082015250565b6000612211601c836120b6565b915061221c826121db565b602082019050919050565b6000602082019050818103600083015261224081612204565b9050919050565b600060608201905061225c6000830186611ef4565b6122696020830185611ef4565b6122766040830184611f1e565b949350505050565b61228781611ebe565b811461229257600080fd5b50565b6000815190506122a48161227e565b92915050565b6000602082840312156122c0576122bf611db8565b5b60006122ce84828501612295565b91505092915050565b60006122e282611e1b565b91506122ed83611e1b565b925082820390508181111561230557612304612133565b5b92915050565b600060e082019050612320600083018a611f1e565b61232d6020830189611ef4565b61233a6040830188611ef4565b6123476060830187611f1e565b6123546080830186611ef4565b61236160a0830185611f1e565b61236e60c0830184611f1e565b98975050505050505050565b7f546865206f72646572206d757374206578697374000000000000000000000000600082015250565b60006123b06014836120b6565b91506123bb8261237a565b602082019050919050565b600060208201905081810360008301526123df816123a3565b9050919050565b7f546865206f726465722063616e6e6f742062652066696c6c656420616c72656160008201527f6479000000000000000000000000000000000000000000000000000000000000602082015250565b60006124426022836120b6565b915061244d826123e6565b604082019050919050565b6000602082019050818103600083015261247181612435565b9050919050565b7f546865206f726465722063616e6e6f742062652063616e63656c6c656420616c60008201527f7265616479000000000000000000000000000000000000000000000000000000602082015250565b60006124d46025836120b6565b91506124df82612478565b604082019050919050565b60006020820190508181036000830152612503816124c7565b9050919050565b7f47657474696e6720616d6f756e742063616e6e6f74206265207a65726f000000600082015250565b6000612540601d836120b6565b915061254b8261250a565b602082019050919050565b6000602082019050818103600083015261256f81612533565b9050919050565b7f476976696e6720616d6f756e742063616e6e6f74206265207a65726f00000000600082015250565b60006125ac601c836120b6565b91506125b782612576565b602082019050919050565b600060208201905081810360008301526125db8161259f565b9050919050565b60006040820190506125f76000830185611ef4565b6126046020830184611f1e565b9392505050565b600061261682611e1b565b915061262183611e1b565b925082820261262f81611e1b565b9150828204841483151761264657612645612133565b5b5092915050565b7f4e487b7100000000000000000000000000000000000000000000000000000000600052601260045260246000fd5b600061268782611e1b565b915061269283611e1b565b9250826126a2576126a161264d565b5b828204905092915050565b7f4e6f7420656e6f75676820746f6b656e7320746f20636f76657220657863686160008201527f6e67652066656573000000000000000000000000000000000000000000000000602082015250565b60006127096028836120b6565b9150612714826126ad565b604082019050919050565b60006020820190508181036000830152612738816126fc565b9050919050565b600061010082019050612755600083018b611f1e565b612762602083018a611ef4565b61276f6040830189611ef4565b61277c6060830188611f1e565b6127896080830187611ef4565b61279660a0830186611f1e565b6127a360c0830185611ef4565b6127b060e0830184611f1e565b999850505050505050505056fea2646970667358221220a2a50a6dc297ec334250c5b8c0ed5e099c0f33b859794254eb06d4aa7dc8a5d764736f6c63430008110033",
  "immutableReferences": {},
  "source": "// SPDX-License-Identifier: Unlicense\npragma solidity 0.8.17;\n\nimport \"@openzeppelin/contracts/token/ERC20/IERC20.sol\";\n\n/**\n * @title A contract for SawonDEX.\n * NOTE: The contract of DEX with a decentralized orderbook and a custom ERC-20 token.\n */\ncontract SAWONdex {\n    struct Order {\n        uint256 id;\n        address user;\n        address tokenGet;\n        uint256 amountGet;\n        address tokenGive;\n        uint256 amountGive;\n        uint256 timestamp;\n    }\n\n    address public constant ETHER = address(0); \n    address private _feeAccount; \n    uint256 private _feePercent; \n    uint256 private _orderCount;\n\n    // Mapping from token address to mapping from user address to amount of tokens.\n    mapping(address => mapping(address => uint256)) private _tokens;\n    // Mapping from order Id to Order object.\n    mapping(uint256 => Order) private _orders;\n    // Mapping from order Id to bool ( whether the order was canceled ).\n    mapping(uint256 => bool) private _orderCancelled;\n    // Mapping from order Id to bool ( whether the order was filled ).\n    mapping(uint256 => bool) private _orderFilled;\n\n    /**\n     * @dev Emitted when the user deposits the tokens to the exchange.\n     * @param token address of the deposited token.\n     * @param user address of the user that deposited tokens.\n     * @param amount amount of deposited tokens.\n     * @param balance the exchange balance of these user tokens after deposit.\n     */\n    event Deposit(address token, address user, uint256 amount, uint256 balance);\n    /**\n     * @dev Emitted when the user withdraws the tokens from the exchange.\n     * @param token the address of the token to be withdrawn.\n     * @param user address of the user to whom funds are withdrawn.\n     * @param amount amount of withdrawn tokens.\n     * @param balance the exchange balance of these user tokens after withdrawn.\n     */\n    event Withdraw(address token, address user, uint256 amount, uint256 balance);\n    /**\n     * @dev Emitted when the user create an order.\n     * @param id order count id.\n     * @param user address of the user that create this order.\n     * @param tokenGet the address of the token that the user wants to get.\n     * @param amountGet the amount of `tokenGet` token user wants to get.\n     * @param tokenGive the address of the token that the user wants to give.\n     * @param amountGive the amount of `tokenGive` token user wants to give.\n     * @param timestamp time of order creation.\n     */\n    event OrderCreated(\n        uint256 id,\n        address user,\n        address tokenGet,\n        uint256 amountGet,\n        address tokenGive,\n        uint256 amountGive,\n        uint256 timestamp\n    );\n    /**\n     * @dev Emitted when the user cancel an order.\n     * @param id id of the cancelled order.\n     * @param user address of the user that cancelled this order.\n     * @param tokenGet the address of the token that the user wanted to get previously.\n     * @param amountGet the amount of `tokenGet` token user wanted to get previously.\n     * @param tokenGive the address of the token that the user wanted to give previously.\n     * @param amountGive the amount of `tokenGive` token user wanted to give previously.\n     * @param timestamp time of order cancelling.\n     */\n    event OrderCancelled(\n        uint256 id,\n        address user,\n        address tokenGet,\n        uint256 amountGet,\n        address tokenGive,\n        uint256 amountGive,\n        uint256 timestamp\n    );\n    /**\n     * @dev Emitted when the trade happened.\n     * @param id id of the filled order.\n     * @param user address of the user that create this order.\n     * @param tokenGet the address of the token that user received.\n     * @param amountGet the amount of `tokenGet` token user received.\n     * @param tokenGive the address of the token that the user gived.\n     * @param amountGive the amount of `tokenGive` token user gived.\n     * @param userFill address of the user that maked this deal with `user`.\n     * @param timestamp time of the transaction.\n     */\n    event OrderFilled(\n        uint256 id,\n        address user,\n        address tokenGet,\n        uint256 amountGet,\n        address tokenGive,\n        uint256 amountGive,\n        address userFill,\n        uint256 timestamp\n    );\n\n    /**\n     * @dev Sets up the `_feeAccount` and `_feePercent`.\n     * @param feeAccount_ the address to which all fees will be transferred.\n     * @param feePercent_ percentage of fees from each transaction to be charged.\n     */\n    constructor(address feeAccount_, uint256 feePercent_) {\n        require(feeAccount_ != address(0), \"Fee account cannot be address zero\");\n        require(feePercent_ != 0, \"Fee percent canot be zero\");\n        _feeAccount = feeAccount_;\n        _feePercent = feePercent_;\n    }\n\n    /**\n     * @dev If user sends Ether to this contract directly call depositEther().\n     */\n    fallback() external payable {\n        depositEther();\n    }\n\n    /**\n     * @dev If user sends Ether to this contract directly call depositEther().\n     */\n    receive() external payable {\n        depositEther();\n    }\n\n    /**\n     * @dev The function allows users to deposit Ether to exchange.\n     *\n     * Requirements:\n     *\n     * - `msg.value` cannot be zero.\n     *\n     * Emits a {Deposit} event.\n     */\n    function depositEther() public payable {\n        require(msg.value != 0, \"Value cannot be zero\");\n        _tokens[ETHER][msg.sender] = _tokens[ETHER][msg.sender] + (msg.value);\n        emit Deposit(ETHER, msg.sender, msg.value, _tokens[ETHER][msg.sender]);\n    }\n\n    /**\n     * @dev The function allows users to withdraw Ether from exchange.\n     *\n     * Requirements:\n     *\n     * - `amount_` cannot be zero.\n     * - user must have enough `amount_` of `ETHER` in `_tokens` mapping.\n     *\n     * @param amount_ the amount of ETH to be withdrawn.\n     *\n     * Emits a {Withdraw} event.\n     */\n    function withdrawEther(uint256 amount_) public {\n        require(amount_ != 0, \"Value cannot be zero\");\n        require(_tokens[ETHER][msg.sender] >= amount_);\n        _tokens[ETHER][msg.sender] = _tokens[ETHER][msg.sender] - (amount_);\n        payable(msg.sender).transfer(amount_);\n        emit Withdraw(ETHER, msg.sender, amount_, _tokens[ETHER][msg.sender]);\n    }\n\n    /**\n     * @dev The function allows users to deposit erc-20 tokens to exchange.\n     *\n     * Requirements:\n     *\n     * - `token_` address cannot be `ETHER` ( or address(0) ) address.\n     * - `msg.sender` required to approve amount of `token_` to be deposited to this contract.\n     *\n     * @param token_ address of the token to be deposited.\n     * @param amount_ the amount of `token_` to be deposited.\n     *\n     * Emits a {Deposit} event.\n     */\n    function depositToken(address token_, uint256 amount_) public {\n        require(token_ != ETHER, \"ERC20 cannot be address zero\");\n        IERC20(token_).transferFrom(msg.sender, address(this), amount_);\n        _tokens[token_][msg.sender] = _tokens[token_][msg.sender] + (amount_);\n        emit Deposit(token_, msg.sender, amount_, _tokens[token_][msg.sender]);\n    }\n\n    /**\n     * @dev The function allows users to withdraw erc-20 tokens from exchange.\n     *\n     * Requirements:\n     *\n     * - `token_` address cannot be `ETHER` ( or address(0) ) address.\n     * - user must have enough `amount_` of `token_` in `_tokens` mapping.\n     *\n     * @param token_ erc-20 token address for withdrawal.\n     * @param amount_ the amount of `token_` to be withdrawn.\n     *\n     * Emits a {Withdraw} event.\n     */\n    function withdrawToken(address token_, uint256 amount_) public {\n        require(token_ != ETHER, \"ERC20 cannot be address zero\");\n        require(_tokens[token_][msg.sender] >= amount_);\n        _tokens[token_][msg.sender] = _tokens[token_][msg.sender] - (amount_);\n        IERC20(token_).transfer(msg.sender, amount_);\n        emit Withdraw(token_, msg.sender, amount_, _tokens[token_][msg.sender]);\n    }\n\n    /**\n     * @dev Returns the balance of an individual token of an individual user.\n     * @param token_ address of token or Ether internal address to be explored.\n     * @param user_ user's address to check the amount of `token_` they has on the exchange.\n     */\n    function balanceOf(address token_, address user_) public view returns (uint256) {\n        return _tokens[token_][user_];\n    }\n\n    /**\n     * @dev The function allows users to create and add orders to orderbook.\n     *\n     * Requirements:\n     *\n     * - `amountGet_` cannot be zero.\n     * - `amountGive_` cannot be zero.\n     *\n     * @param tokenGet_ the address of the token that the user wants to get.\n     * @param amountGet_ the amount of `tokenGet` token user wants to get.\n     * @param tokenGive_ the address of the token that the user wants to give.\n     * @param amountGive_ the amount of `tokenGive` token user wants to give.\n     *\n     * Emits a {OrderCreated} event.\n     */\n    function makeOrder(\n        address tokenGet_,\n        uint256 amountGet_,\n        address tokenGive_,\n        uint256 amountGive_\n    ) public {\n        require(amountGet_ != 0, \"Getting amount cannot be zero\");\n        require(amountGive_ != 0, \"Giving amount cannot be zero\");\n        _orderCount += 1;\n        _orders[_orderCount] = Order(\n            _orderCount,\n            msg.sender,\n            tokenGet_,\n            amountGet_,\n            tokenGive_,\n            amountGive_,\n            block.timestamp\n        );\n        emit OrderCreated(_orderCount, msg.sender, tokenGet_, amountGet_, tokenGive_, amountGive_, block.timestamp);\n    }\n\n    /**\n     * @dev The function allows users to cancel and remove their own orders from orderbook.\n     *\n     * Requirements:\n     *\n     * - `msg.sender` must be the creator of `id_` order.\n     * - the order must exist.\n     *\n     * @param id_ id of the order to be removed from orderbook.\n     *\n     * Emits a {OrderCancelled} event.\n     */\n    function cancelOrder(uint256 id_) public {\n        Order storage order = _orders[id_];\n        require(address(order.user) == msg.sender);\n        require(order.id == id_);\n        _orderCancelled[id_] = true;\n        emit OrderCancelled(\n            order.id,\n            msg.sender,\n            order.tokenGet,\n            order.amountGet,\n            order.tokenGive,\n            order.amountGive,\n            block.timestamp\n        );\n    }\n\n    /**\n     * @dev The function allows users to filled orders and make trades.\n     *\n     * Requirements:\n     *\n     * - the order must exist and `id_` of order cannot be higher than `_orderCount`.\n     * - order cannot be filled already.\n     * - order cannot be cancelled already.\n     *\n     * @param id_ id of the order to be filled.\n     *\n     * Emits a {OrderFilled} event.\n     */\n    function fillOrder(uint256 id_) public {\n        require(id_ > 0 && id_ <= _orderCount, \"The order must exist\");\n        require(!_orderFilled[id_], \"The order cannot be filled already\");\n        require(!_orderCancelled[id_], \"The order cannot be cancelled already\");\n        Order storage order = _orders[id_];\n        _trade(order.id, order.user, order.tokenGet, order.amountGet, order.tokenGive, order.amountGive);\n        _orderFilled[order.id] = true;\n    }\n\n    /**\n     * @dev The trade function with charging fees from users.\n     *\n     * Requirements:\n     *\n     * - Fee paid by the user that fills the order, so `msg.sender` must have enough tokens to cover exchange fees.\n     *\n     * @param id_ id of the order to be filled.\n     * @param user_ the address of the creator of the order.\n     * @param tokenGet_ the address of the token that the `user_` wants to get and `msg.sender` wants to give.\n     * @param amountGet_ the amount of `tokenGet` token `user_` wants to get and `msg.sender` wants to give.\n     * @param tokenGive_ the address of the token that the `user_` wants to give and `msg.sender` wants to get.\n     * @param amountGive_ the amount of `tokenGive` token `user_` wants to give and `msg.sender` wants to get.\n     *\n     * Emits a {OrderFilled} event.\n     */\n    function _trade(\n        uint256 id_,\n        address user_,\n        address tokenGet_,\n        uint256 amountGet_,\n        address tokenGive_,\n        uint256 amountGive_\n    ) internal {\n        uint256 _feeAmount = (amountGet_ * (_feePercent)) / (100);\n        require(_tokens[tokenGet_][msg.sender] >= amountGet_ + _feeAmount, \"Not enough tokens to cover exchange fees\");\n        _tokens[tokenGet_][msg.sender] = _tokens[tokenGet_][msg.sender] - (amountGet_ + (_feeAmount));\n        _tokens[tokenGet_][user_] = _tokens[tokenGet_][user_] + (amountGet_);\n        _tokens[tokenGet_][_feeAccount] = _tokens[tokenGet_][_feeAccount] + (_feeAmount);\n        _tokens[tokenGive_][user_] = _tokens[tokenGive_][user_] - (amountGive_);\n        _tokens[tokenGive_][msg.sender] = _tokens[tokenGive_][msg.sender] + (amountGive_);\n        emit OrderFilled(id_, user_, tokenGet_, amountGet_, tokenGive_, amountGive_, msg.sender, block.timestamp);\n    }\n\n    /**\n     * @dev Returns the Order data by providing order Id.\n     */\n    function getOrder(uint256 orderId_) public view returns (Order memory) {\n        return _orders[orderId_];\n    }\n\n    /**\n     * @dev Returns by providing order Id the bool whether the order was filled.\n     */\n    function getOrderFilled(uint256 orderId_) public view returns (bool) {\n        return _orderFilled[orderId_];\n    }\n\n    /**\n     * @dev Returns by providing order Id the bool whether the order was cancelled.\n     */\n    function getOrderCancelled(uint256 orderId_) public view returns (bool) {\n        return _orderCancelled[orderId_];\n    }\n\n    /**\n     * @dev Returns the amount of all orders.\n     */\n    function getOrderCount() public view returns (uint256) {\n        return _orderCount;\n    }\n\n    /**\n     * @dev Returns the address of the fee account that receives exchange fees.\n     */\n    function getFeeAccount() public view returns (address) {\n        return _feeAccount;\n    }\n\n    /**\n     * @dev Returns the fee percent of every transaction.\n     */\n    function getFeePercent() public view returns (uint256) {\n        return _feePercent;\n    }\n}\n",
  "sourcePath": "/home/dev/www/cex2/src/contracts/SAWONdex.sol",
  "compiler": {
    "name": "solc",
    "version": "0.8.17+commit.8df45f5f.Emscripten.clang"
  },
  "schemaVersion": "3.4.11",
  "updatedAt": "2022-12-26T06:17:27.991Z",
  "networkType": "ethereum",
  "devdoc": {
    "events": {
      "Deposit(address,address,uint256,uint256)": {
        "details": "Emitted when the user deposits the tokens to the exchange.",
        "params": {
          "amount": "amount of deposited tokens.",
          "balance": "the exchange balance of these user tokens after deposit.",
          "token": "address of the deposited token.",
          "user": "address of the user that deposited tokens."
        }
      },
      "OrderCancelled(uint256,address,address,uint256,address,uint256,uint256)": {
        "details": "Emitted when the user cancel an order.",
        "params": {
          "amountGet": "the amount of `tokenGet` token user wanted to get previously.",
          "amountGive": "the amount of `tokenGive` token user wanted to give previously.",
          "id": "id of the cancelled order.",
          "timestamp": "time of order cancelling.",
          "tokenGet": "the address of the token that the user wanted to get previously.",
          "tokenGive": "the address of the token that the user wanted to give previously.",
          "user": "address of the user that cancelled this order."
        }
      },
      "OrderCreated(uint256,address,address,uint256,address,uint256,uint256)": {
        "details": "Emitted when the user create an order.",
        "params": {
          "amountGet": "the amount of `tokenGet` token user wants to get.",
          "amountGive": "the amount of `tokenGive` token user wants to give.",
          "id": "order count id.",
          "timestamp": "time of order creation.",
          "tokenGet": "the address of the token that the user wants to get.",
          "tokenGive": "the address of the token that the user wants to give.",
          "user": "address of the user that create this order."
        }
      },
      "OrderFilled(uint256,address,address,uint256,address,uint256,address,uint256)": {
        "details": "Emitted when the trade happened.",
        "params": {
          "amountGet": "the amount of `tokenGet` token user received.",
          "amountGive": "the amount of `tokenGive` token user gived.",
          "id": "id of the filled order.",
          "timestamp": "time of the transaction.",
          "tokenGet": "the address of the token that user received.",
          "tokenGive": "the address of the token that the user gived.",
          "user": "address of the user that create this order.",
          "userFill": "address of the user that maked this deal with `user`."
        }
      },
      "Withdraw(address,address,uint256,uint256)": {
        "details": "Emitted when the user withdraws the tokens from the exchange.",
        "params": {
          "amount": "amount of withdrawn tokens.",
          "balance": "the exchange balance of these user tokens after withdrawn.",
          "token": "the address of the token to be withdrawn.",
          "user": "address of the user to whom funds are withdrawn."
        }
      }
    },
    "kind": "dev",
    "methods": {
      "balanceOf(address,address)": {
        "details": "Returns the balance of an individual token of an individual user.",
        "params": {
          "token_": "address of token or Ether internal address to be explored.",
          "user_": "user's address to check the amount of `token_` they has on the exchange."
        }
      },
      "cancelOrder(uint256)": {
        "details": "The function allows users to cancel and remove their own orders from orderbook. Requirements: - `msg.sender` must be the creator of `id_` order. - the order must exist.",
        "params": {
          "id_": "id of the order to be removed from orderbook. Emits a {OrderCancelled} event."
        }
      },
      "constructor": {
        "details": "Sets up the `_feeAccount` and `_feePercent`.",
        "params": {
          "feeAccount_": "the address to which all fees will be transferred.",
          "feePercent_": "percentage of fees from each transaction to be charged."
        }
      },
      "depositEther()": {
        "details": "The function allows users to deposit Ether to exchange. Requirements: - `msg.value` cannot be zero. Emits a {Deposit} event."
      },
      "depositToken(address,uint256)": {
        "details": "The function allows users to deposit erc-20 tokens to exchange. Requirements: - `token_` address cannot be `ETHER` ( or address(0) ) address. - `msg.sender` required to approve amount of `token_` to be deposited to this contract.",
        "params": {
          "amount_": "the amount of `token_` to be deposited. Emits a {Deposit} event.",
          "token_": "address of the token to be deposited."
        }
      },
      "fillOrder(uint256)": {
        "details": "The function allows users to filled orders and make trades. Requirements: - the order must exist and `id_` of order cannot be higher than `_orderCount`. - order cannot be filled already. - order cannot be cancelled already.",
        "params": {
          "id_": "id of the order to be filled. Emits a {OrderFilled} event."
        }
      },
      "getFeeAccount()": {
        "details": "Returns the address of the fee account that receives exchange fees."
      },
      "getFeePercent()": {
        "details": "Returns the fee percent of every transaction."
      },
      "getOrder(uint256)": {
        "details": "Returns the Order data by providing order Id."
      },
      "getOrderCancelled(uint256)": {
        "details": "Returns by providing order Id the bool whether the order was cancelled."
      },
      "getOrderCount()": {
        "details": "Returns the amount of all orders."
      },
      "getOrderFilled(uint256)": {
        "details": "Returns by providing order Id the bool whether the order was filled."
      },
      "makeOrder(address,uint256,address,uint256)": {
        "details": "The function allows users to create and add orders to orderbook. Requirements: - `amountGet_` cannot be zero. - `amountGive_` cannot be zero.",
        "params": {
          "amountGet_": "the amount of `tokenGet` token user wants to get.",
          "amountGive_": "the amount of `tokenGive` token user wants to give. Emits a {OrderCreated} event.",
          "tokenGet_": "the address of the token that the user wants to get.",
          "tokenGive_": "the address of the token that the user wants to give."
        }
      },
      "withdrawEther(uint256)": {
        "details": "The function allows users to withdraw Ether from exchange. Requirements: - `amount_` cannot be zero. - user must have enough `amount_` of `ETHER` in `_tokens` mapping.",
        "params": {
          "amount_": "the amount of ETH to be withdrawn. Emits a {Withdraw} event."
        }
      },
      "withdrawToken(address,uint256)": {
        "details": "The function allows users to withdraw erc-20 tokens from exchange. Requirements: - `token_` address cannot be `ETHER` ( or address(0) ) address. - user must have enough `amount_` of `token_` in `_tokens` mapping.",
        "params": {
          "amount_": "the amount of `token_` to be withdrawn. Emits a {Withdraw} event.",
          "token_": "erc-20 token address for withdrawal."
        }
      }
    },
    "title": "A contract for SawonDEX. NOTE: The contract of DEX with a decentralized orderbook and a custom ERC-20 token.",
    "version": 1
  },
  "userdoc": {
    "kind": "user",
    "methods": {},
    "version": 1
  }
}